:100000002AC044C067C242C041C040C03FC03EC0D9
:100010003DC03CC03BC03AC039C038C037C04F4B70
:100020000056302E3700FC7C3C1C0C0484C4E4F4E5
:100030006088A8904028D0082078B048E0A0F068F8
:10004000D85010C030187098B8C8328C56165494D6
:100050003F3D2E23242F11241FBECFE5D1E0DEBF6C
:10006000CDBF10E0A0E6B0E0E2E0FFE002C0059006
:100070000D92A436B107D9F710E0A4E6B0E001C0B4
:100080001D92AA37B107E1F71AD239C7B9CF482F65
:100090002091620030916300C90181709070909549
:1000A00081959F4F8070947B369527958227932763
:1000B0009093630080936200892F01C0841B841792
:1000C000E8F790E00895EF92FF921F93CF93DF93AC
:1000D0007C01EC0110E0123031F48AE0D8DF805D61
:1000E000F701828304C08AE1D2DF8F5B88831F5FC0
:1000F0002196153081F7DF91CF911F91FF90EF90FE
:1001000008951F93CF93DF93182F809160009091F3
:100110006100885E9D4F49F481E061E040E050E07D
:1001200068D49093610080936000113009F047C05B
:10013000109261001092600088EE93E09093650049
:10014000809364008EE4CED4C8EED3E01AC080E081
:100150003AD3182F0CD2812F80538A3090F480919B
:100160006000909161006AE070E05CD6C097810FFA
:10017000911D9093610080936000D0936500C093BF
:1001800064008091640090916500019790936500F0
:1001900080936400892BD9F64091600050916100F2
:1001A00087E24031580748F482E061E022D4809130
:1001B000600090916100DDD435C09ED233C0123012
:1001C00089F58091600090916100892B59F180E060
:1001D0008BD18091640090916500009731F0019778
:1001E00090936500809364001DC088EC90E090932C
:1001F0006500809364008091600090916100019798
:100200009093610080936000892B61F481E061E04C
:1002100040E050E0EED3909361008093600082E074
:1002200062E0E5D4DF91CF911F910895AF92BF9224
:10023000CF92DF92EF92FF920F931F93DF93CF93B2
:1002400000D000D00F92CDB7DEB76E010894C11C6C
:10025000D11C66E0A62EB12CAC0EBD1EC60133DF4C
:10026000FF24FF2081F48EE013D28601F801808103
:1002700039D421D281E001D4882371F50F5F1F4F5B
:100280000A151B0599F700ED17E080E09CD2E82ED7
:100290006ED101501040EE2041F401151105E1F03E
:1002A00080E0EBD3882389F302C0012BA9F081E021
:1002B000E4D3882389F4F601EF0DF11D80818E15BA
:1002C00029F4F394F4E0FF1560F603C015D2FF247F
:1002D000CACF82E507D4C2CF0F900F900F900F9036
:1002E0000F90CF91DF911F910F91FF90EF90DF90D2
:1002F000CF90BF90AF9008951F9310E0B39902C0C4
:1003000082E003C0B49904C081E061E002D2F5CF7D
:100310001F5F87E0BDD11A3089F71F910895CF93F1
:10032000DF93CAE0D0E085E4DDD3B39B02C0219720
:1003300004C082E023D1CAE0D0E0B49903C081E0D8
:100340001DD1EFCF209779F7DF91CF9108951F93BB
:10035000CF93DF9381E089D18FE3C4D3C8EED3E09C
:100360009FC080E030D2182F882319F0C8EED3E068
:1003700001C02197FCD08FEF8ADE82E03DD1882337
:1003800009F044C01B3489F11C3480F4113401F1AC
:10039000123428F4113379F11233C1F531C0143419
:1003A000E9F0193431F1123489F514C0123571F0C5
:1003B000133528F41C3481F01E3441F563C0183520
:1003C00081F01A35A1F0133509F50DC0D5D462C0FE
:1003D00080E005C084E003C088E001C08CE000D16B
:1003E00059C080E83EC080E13CC080E23AC084DF72
:1003F00051C080E436C081E375D381E061E004C080
:1004000082E370D381E062E0F2D344C01035F1F0B2
:10041000113560F4133411F1143418F41033C1F5AC
:100420001FC0153401F11E3499F52CC0153581F02B
:10043000163518F4143561F51BC0163519F017354B
:1004400039F523C081E290E066D424C068DF22C081
:1004500080E00BD174D481E008D11CC0E7DE1AC063
:1004600082E0CED017C080E000D182E061E004C01D
:1004700080E0FBD082E062E0BAD381E0F6D0C8EB46
:10048000DBE00EC081E03DDE05C06DD072D302C05E
:10049000113021F48EE190E03ED402C011112CD134
:1004A00081E0EBD2882319F4209709F05ACF85E434
:1004B00019D380E0DAD0DF91CF911F91089577D4DE
:1004C00081E0DBD2811143DF52D082E01ADE80E08E
:1004D0007AD1F6CF1F920F920FB60F9211240F9080
:1004E0000FBE0F901F901895882309F433C0809198
:1004F0006F0090917000A0917100B0917200019610
:10050000A11DB11D80936F0090937000A0937100A6
:10051000B09372000197A109B10980579741A0409B
:10052000B04001F510926F001092700010927100AF
:100530001092720085B7877E806185BF85B7846819
:1005400085BF8B7F85BF85B7806285BF789488958E
:10055000F894089510926F0010927000109271003C
:100560001092720008958091780090E0089508B686
:1005700006FEFDCF88B7806488BF0895813031F4CE
:100580008091740090917500019707C0823049F402
:1005900080917400909175000196909375008093FE
:1005A00074008091740090917500889730F488E20F
:1005B00090E0909375008093740080917400909106
:1005C00075008C39910530F08BE990E090937500BF
:1005D0008093740080916600846080936600089523
:1005E00090917300937F982B909373008091660095
:1005F0008460809366000895909173008923089524
:1006000090917300982790937300809166008460A6
:10061000809366000895982F8230A9F48091660037
:10062000282F84FF08C08091740089BD88BD8AB5D9
:1006300082618ABD93BF25FF17C08091730086FF3A
:1006400010C0C0980895813079F48091660084FFCD
:1006500002C01ABC13BE85FF07C08091730086FFDD
:1006600002C0C09A0895C0980895909166008823AA
:1006700029F09F7C906190936600089580917300AB
:1006800080739F7C892B8093660081E0C4DF08958E
:10069000282F309176000AC008B606FEFDCF88B735
:1006A000806488BF91509923B9F72150222311F01B
:1006B000932FF9CF0895CF93DF9380917900C82FBE
:1006C000D0E003C081E0E4DF21972097D9F7DF91E4
:1006D000CF9108951F93182F82E09DDF80E004DF03
:1006E000113021F0123021F483E001C081E0D0DF2D
:1006F00081E091DF1F9108951F9310E081E0EADF10
:1007000081E0C6DF1F5F1830C9F783E0C1DF1F91AA
:100710000895613091F4813031F48091790088231B
:1007200039F1815007C0823019F5809179008F3FEF
:10073000F9F08F5F809379001BC0813031F4809194
:100740007800823358F48F5F07C0823039F480918B
:100750007800863018F0815080937800609178009E
:1007600080EF90E070E084D3709377006093760020
:100770008091660084608093660081E0ABDF81E059
:1007800087DF82E0A7DF83E083DF95DF0895909124
:1007900073009078B3990AC020916600992311F4F0
:1007A00081E001C082E0822B80936600B4990AC088
:1007B00020916600992311F482E001C081E0822B30
:1007C0008093660008951F9320916C0030916D0016
:1007D0002115310531F02150304030936D002093C8
:1007E0006C00882311F41092680080916E008130B3
:1007F00009F4CEC0813020F0823009F0F6C0E4C0A8
:10080000C6DF81E071DE8091730090E08C709070A3
:100810008430910561F0853091051CF4892B39F005
:100820002DC08830910571F00C9741F51EC0909154
:100830006B009095809166008923809366001092EA
:100840006B001CC090916600892F8370833049F43F
:1008500080916700882379F08095892380936600D2
:100860000DC093709093670009C090916600892F26
:100870008370833019F49E7F9093660080916C00A2
:1008800090916D00892B09F04BC040916900442381
:1008900009F43EC080916A00880F816090E027E0F3
:1008A00030E0241B310902C0880F991F2A95E2F716
:1008B000982F20E030E0F901EA5DFF4FE491E9175D
:1008C00069F42A3010F4205D0FC0243210F4295C42
:1008D0000BC0245D3F4FF901249106C02F5F3F4FAD
:1008E0002A32310541F720E01092690010926A0027
:1008F0008091760090917700880F991F880F991F3B
:1009000090936D0080936C0081E0809368006EC0CE
:1009100080916800882321F01092680020E266C070
:1009200010916600412F50E0CA0183709070892BAE
:1009300009F45BC010926800809169008F5F80931A
:10094000690020916A00220F20936A00809176004E
:100950009091770010FF08C090936D0080936C0019
:1009600081E080936B000DC063E070E05BD29093F8
:100970006D0080936C0082E080936B002160209377
:100980006A0082E048DE1C7F1093660081E019C097
:1009900080E0AADD809173008C70843009F4F7DE6A
:1009A00080916C0090916D00892BF9F481E033DE29
:1009B000809176009091770090936D0080936C0009
:1009C00082E080936E0011C0E2DE80916C00909115
:1009D0006D00892B51F410926E00809176009091F9
:1009E000770090936D0080936C0020E0822F1F9120
:1009F0000895813069F4613021F486E090E062D29C
:100A000005C0623091F488E090E05CD29C010FC098
:100A1000823059F4613019F486E090E004C062300D
:100A200021F488E090E0BA0167D220E030E0C9010B
:100A300008958091660082FF1FC080E090E065EA23
:100A40004DD2609174007091750082E090E054D2B4
:100A500084E090E06091780041D281E090E0609184
:100A600073003CD285E090E06091790037D28091AC
:100A700066008B7F8093660008950F931F93082F65
:100A800010916600B2991AC0186081E0EEDD84ED25
:100A900090E30197F1F70CC0B39904C082E060E0E5
:100AA00038DE177FB49904C081E060E032DE177F42
:100AB000B29BF2CF84ED90E30197F1F710936600BB
:100AC000013021F4812F877F80936600B2DF812F70
:100AD00090E043E0969587954A95E1F781701F91E4
:100AE0000F9108951F93282F80538A3010F010E83B
:100AF00005C0E22FF0E0EA50F0401491822F8156B9
:100B00008A3128F4E22FF0E0E153F0401491822F73
:100B100081548A3128F4E22FF0E0E151F040149141
:100B200080E090E0FC01E05BFF4FE4912E1721F4A0
:100B3000FC01E65BFF4F149101968630910591F719
:100B4000203281F484E0A4DD12C080E096DF8823A7
:100B500071F417FF02C082E001C081E0BBDD81E0DB
:100B600097DD110F103889F782E092DDA4DD1F9127
:100B70000895EF92FF921F93DF93CF9300D000D0A0
:100B80000F92CDB7DEB79C0110E07E010894E11C06
:100B9000F11C0FC0F701E10FF11DC9016AE070E01F
:100BA00053D1805D80831F5FC9016AE070E04CD142
:100BB0009B012115310571F707C01150F701E10FB5
:100BC000F11D80818FDF04C07E010894E11CF11CBF
:100BD000112399F780E286DF0F900F900F900F900E
:100BE0000F90CF91DF911F91FF90EF900895BF92EA
:100BF000CF92DF92EF92FF920F931F93DF93CF93E9
:100C0000CDB7DEB7C456D0400FB6F894DEBF0FBEE6
:100C1000CDBFB62E813009F050C068EEE62E63E0FD
:100C2000F62E00E06E010894C11CD11C80E025DF87
:100C3000882309F05FC081E0C6DD882321F4089491
:100C4000E108F10809C0F601E00FF11D80830F5F94
:100C500058EEE52E53E0F52E043610F04DDD00E0A1
:100C600008B606FEFDCF88B7806488BFE114F104A2
:100C7000E9F6002301F10150CE010196FC01E00FDD
:100C8000F11D0F5F10827C0110E004C0F70181911B
:100C90007F0128DF1F5F1017C9F7CE010196F1E031
:100CA000BF1619F46AE070E002C06EE670E044E638
:100CB00050E00CD11FC020DD1DC08230D9F4CE0120
:100CC000019621E0621719F46AE070E002C06EE656
:100CD00070E044E650E0DFD010E07E010894E11CB3
:100CE000F11C02C0FFDE1F5FF701E10FF11D8081E3
:100CF0008823C1F7CC59DF4F0FB6F894DEBF0FBE83
:100D0000CDBFCF91DF911F910F91FF90EF90DF90BA
:100D1000CF90BF9008951F93CF93DF93EC0102C053
:100D2000812FE0DEFE0121961491112321F080E055
:100D3000A4DE8823A9F3DF91CF911F910895CF936B
:100D4000DF9382E068DCC0EADFE009C0219708B6E3
:100D500006FEFDCF88B7806488BF209741F0B39B23
:100D600006C0B49B04C081E088DE882379F381E06B
:100D700052DCDF91CF9108958DE490E0909375005F
:100D8000809374008CE08093780084E190E09093ED
:100D90007700809376001092790084E3809373004B
:100DA0008091660084608093660043DE0895B89A5F
:100DB000B99AC39AC49AC29A80E090E07BD0853AEF
:100DC00001F582E090E07ED09093750080937400EE
:100DD00084E090E06FD0682F8093780080EF90E0FF
:100DE00070E046D0709377006093760085E090E0E5
:100DF00061D08093790081E090E05CD080937300B3
:100E000001C0BADF80E031DC85B38C6185BB8BB774
:100E100080628BBF8EE48DBD80B7876880BF81E024
:100E20008EBD08955527002480FF02C0060E571F6F
:100E3000660F771F6115710521F0969587950097CC
:100E400099F7952F802D0895AA1BBB1B51E107C070
:100E5000AA1FBB1FA617B70710F0A61BB70B881F4A
:100E6000991F5A95A9F780959095BC01CD010895D9
:100E700097FB092E07260AD077FD04D0E5DF06D0C0
:100E800000201AF4709561957F4F0895F6F79095BC
:100E900081959F4F0895DC01862FE82FE199FECFC1
:100EA0001FBA05C0EEBBE09AE3950DB20D9241501A
:100EB000C8F70895E199FECF1FBA8EBBE09A992733
:100EC0008DB30895A8E1B0E042E0E7CFDC01862FC2
:100ED00002C02D9104D04150E0F70895262FE199EA
:100EE000FECF1CBA1FBA8EBB2DBB0FB6F894E29A88
:100EF000E19A0FBE01960895F1DF272FF0CFF89405
:020F0000FFCF21
:040F0200E8FDE1AC79
:00000001FF
